{
  "contractName": "DeviceCustody",
  "abi": [
    {
      "inputs": [],
      "payable": false,
      "stateMutability": "nonpayable",
      "type": "constructor"
    },
    {
      "payable": false,
      "stateMutability": "nonpayable",
      "type": "fallback"
    },
    {
      "anonymous": false,
      "inputs": [
        {
          "indexed": false,
          "name": "oldCustodian",
          "type": "address"
        },
        {
          "indexed": false,
          "name": "newCustodian",
          "type": "address"
        },
        {
          "indexed": false,
          "name": "index",
          "type": "uint256"
        }
      ],
      "name": "CustodyTransfer",
      "type": "event"
    },
    {
      "constant": true,
      "inputs": [],
      "name": "deviceCount",
      "outputs": [
        {
          "name": "",
          "type": "uint256"
        }
      ],
      "payable": false,
      "stateMutability": "view",
      "type": "function"
    },
    {
      "constant": true,
      "inputs": [],
      "name": "executableCount",
      "outputs": [
        {
          "name": "",
          "type": "uint256"
        }
      ],
      "payable": false,
      "stateMutability": "view",
      "type": "function"
    },
    {
      "constant": false,
      "inputs": [
        {
          "name": "_manufacturer",
          "type": "string"
        },
        {
          "name": "_model",
          "type": "string"
        },
        {
          "name": "_serialNumber",
          "type": "string"
        }
      ],
      "name": "newDevice",
      "outputs": [
        {
          "name": "",
          "type": "uint256"
        }
      ],
      "payable": false,
      "stateMutability": "nonpayable",
      "type": "function"
    },
    {
      "constant": true,
      "inputs": [
        {
          "name": "_deviceIndex",
          "type": "uint256"
        }
      ],
      "name": "getDeviceManufacturer",
      "outputs": [
        {
          "name": "",
          "type": "string"
        }
      ],
      "payable": false,
      "stateMutability": "view",
      "type": "function"
    },
    {
      "constant": true,
      "inputs": [
        {
          "name": "_deviceIndex",
          "type": "uint256"
        }
      ],
      "name": "getDeviceModel",
      "outputs": [
        {
          "name": "",
          "type": "string"
        }
      ],
      "payable": false,
      "stateMutability": "view",
      "type": "function"
    },
    {
      "constant": true,
      "inputs": [
        {
          "name": "_deviceIndex",
          "type": "uint256"
        }
      ],
      "name": "getDeviceSerialNumber",
      "outputs": [
        {
          "name": "",
          "type": "string"
        }
      ],
      "payable": false,
      "stateMutability": "view",
      "type": "function"
    },
    {
      "constant": true,
      "inputs": [
        {
          "name": "_deviceIndex",
          "type": "uint256"
        }
      ],
      "name": "getDeviceCurrentCustodian",
      "outputs": [
        {
          "name": "",
          "type": "address"
        }
      ],
      "payable": false,
      "stateMutability": "view",
      "type": "function"
    },
    {
      "constant": false,
      "inputs": [
        {
          "name": "_deviceIndex",
          "type": "uint256"
        },
        {
          "name": "_newCustodian",
          "type": "address"
        },
        {
          "name": "_globalHash",
          "type": "uint256"
        }
      ],
      "name": "transfer",
      "outputs": [],
      "payable": false,
      "stateMutability": "nonpayable",
      "type": "function"
    },
    {
      "constant": false,
      "inputs": [
        {
          "name": "_name",
          "type": "string"
        },
        {
          "name": "_location",
          "type": "string"
        },
        {
          "name": "_hashAlgorithm",
          "type": "string"
        },
        {
          "name": "_hashCode",
          "type": "uint256"
        }
      ],
      "name": "newExecutable",
      "outputs": [
        {
          "name": "",
          "type": "uint256"
        }
      ],
      "payable": false,
      "stateMutability": "nonpayable",
      "type": "function"
    },
    {
      "constant": false,
      "inputs": [
        {
          "name": "_deviceIndex",
          "type": "uint256"
        },
        {
          "name": "_name",
          "type": "string"
        },
        {
          "name": "_location",
          "type": "string"
        },
        {
          "name": "_hashAlgorithm",
          "type": "string"
        },
        {
          "name": "_hashCode",
          "type": "uint256"
        }
      ],
      "name": "addExecutable",
      "outputs": [],
      "payable": false,
      "stateMutability": "nonpayable",
      "type": "function"
    },
    {
      "constant": false,
      "inputs": [
        {
          "name": "_deviceIndex",
          "type": "uint256"
        },
        {
          "name": "_executableIndex",
          "type": "uint256"
        }
      ],
      "name": "addExecutable",
      "outputs": [],
      "payable": false,
      "stateMutability": "nonpayable",
      "type": "function"
    },
    {
      "constant": false,
      "inputs": [
        {
          "name": "_deviceIndex",
          "type": "uint256"
        },
        {
          "name": "_name",
          "type": "string"
        }
      ],
      "name": "removeInstalledExecutable",
      "outputs": [
        {
          "name": "",
          "type": "bool"
        }
      ],
      "payable": false,
      "stateMutability": "nonpayable",
      "type": "function"
    },
    {
      "constant": true,
      "inputs": [
        {
          "name": "_deviceIndex",
          "type": "uint256"
        },
        {
          "name": "_name",
          "type": "string"
        }
      ],
      "name": "isExecutableInstalled",
      "outputs": [
        {
          "name": "",
          "type": "bool"
        }
      ],
      "payable": false,
      "stateMutability": "view",
      "type": "function"
    },
    {
      "constant": true,
      "inputs": [
        {
          "name": "_deviceIndex",
          "type": "uint256"
        }
      ],
      "name": "executableInstalledCount",
      "outputs": [
        {
          "name": "",
          "type": "uint256"
        }
      ],
      "payable": false,
      "stateMutability": "view",
      "type": "function"
    }
  ],
  "bytecode": "0x608060405234801561001057600080fd5b50612231806100206000396000f3006080604052600436106100cf576000357c0100000000000000000000000000000000000000000000000000000000900463ffffffff16806212be32146100e1578063098b6ee4146101875780633193ea6c1461022d5780633f62cffb146102d35780634f8c9d1f1461030a578063535bca9a1461041357806384a60ed71461043e57806395cc00a714610547578063a3f5baee146105b4578063cdf7e64b146105f5578063e599020314610680578063f520d4c2146106ab578063f8548e36146107be578063fae9de6914610815575b3480156100db57600080fd5b50600080fd5b3480156100ed57600080fd5b5061010c600480360381019080803590602001909291905050506108a0565b6040518080602001828103825283818151815260200191508051906020019080838360005b8381101561014c578082015181840152602081019050610131565b50505050905090810190601f1680156101795780820380516001836020036101000a031916815260200191505b509250505060405180910390f35b34801561019357600080fd5b506101b2600480360381019080803590602001909291905050506109eb565b6040518080602001828103825283818151815260200191508051906020019080838360005b838110156101f25780820151818401526020810190506101d7565b50505050905090810190601f16801561021f5780820380516001836020036101000a031916815260200191505b509250505060405180910390f35b34801561023957600080fd5b5061025860048036038101908080359060200190929190505050610b36565b6040518080602001828103825283818151815260200191508051906020019080838360005b8381101561029857808201518184015260208101905061027d565b50505050905090810190601f1680156102c55780820380516001836020036101000a031916815260200191505b509250505060405180910390f35b3480156102df57600080fd5b506103086004803603810190808035906020019092919080359060200190929190505050610c81565b005b34801561031657600080fd5b5061041160048036038101908080359060200190929190803590602001908201803590602001908080601f0160208091040260200160405190810160405280939291908181526020018383808284378201915050505050509192919290803590602001908201803590602001908080601f0160208091040260200160405190810160405280939291908181526020018383808284378201915050505050509192919290803590602001908201803590602001908080601f016020809104026020016040519081016040528093929190818152602001838380828437820191505050505050919291929080359060200190929190505050610de9565b005b34801561041f57600080fd5b5061042861107e565b6040518082815260200191505060405180910390f35b34801561044a57600080fd5b50610531600480360381019080803590602001908201803590602001908080601f0160208091040260200160405190810160405280939291908181526020018383808284378201915050505050509192919290803590602001908201803590602001908080601f0160208091040260200160405190810160405280939291908181526020018383808284378201915050505050509192919290803590602001908201803590602001908080601f016020809104026020016040519081016040528093929190818152602001838380828437820191505050505050919291929050505061108a565b6040518082815260200191505060405180910390f35b34801561055357600080fd5b5061057260048036038101908080359060200190929190505050611293565b604051808273ffffffffffffffffffffffffffffffffffffffff1673ffffffffffffffffffffffffffffffffffffffff16815260200191505060405180910390f35b3480156105c057600080fd5b506105df60048036038101908080359060200190929190505050611365565b6040518082815260200191505060405180910390f35b34801561060157600080fd5b5061066660048036038101908080359060200190929190803590602001908201803590602001908080601f01602080910402602001604051908101604052809392919081815260200183838082843782019150505050505091929192905050506113cf565b604051808215151515815260200191505060405180910390f35b34801561068c57600080fd5b5061069561158a565b6040518082815260200191505060405180910390f35b3480156106b757600080fd5b506107a8600480360381019080803590602001908201803590602001908080601f0160208091040260200160405190810160405280939291908181526020018383808284378201915050505050509192919290803590602001908201803590602001908080601f0160208091040260200160405190810160405280939291908181526020018383808284378201915050505050509192919290803590602001908201803590602001908080601f016020809104026020016040519081016040528093929190818152602001838380828437820191505050505050919291929080359060200190929190505050611597565b6040518082815260200191505060405180910390f35b3480156107ca57600080fd5b5061081360048036038101908080359060200190929190803573ffffffffffffffffffffffffffffffffffffffff1690602001909291908035906020019092919050505061173c565b005b34801561082157600080fd5b5061088660048036038101908080359060200190929190803590602001908201803590602001908080601f0160208091040260200160405190810160405280939291908181526020018383808284378201915050505050509192919290505050611a3e565b604051808215151515815260200191505060405180910390f35b6060600082101580156108b7575060008054905082105b151561092b576040517f08c379a000000000000000000000000000000000000000000000000000000000815260040180806020018281038252601b8152602001807f646576696365496e646578206973206f7574206f662072616e6765000000000081525060200191505060405180910390fd5b60008281548110151561093a57fe5b90600052602060002090600502016000018054600181600116156101000203166002900480601f0160208091040260200160405190810160405280929190818152602001828054600181600116156101000203166002900480156109df5780601f106109b4576101008083540402835291602001916109df565b820191906000526020600020905b8154815290600101906020018083116109c257829003601f168201915b50505050509050919050565b606060008210158015610a02575060008054905082105b1515610a76576040517f08c379a000000000000000000000000000000000000000000000000000000000815260040180806020018281038252601b8152602001807f646576696365496e646578206973206f7574206f662072616e6765000000000081525060200191505060405180910390fd5b600082815481101515610a8557fe5b90600052602060002090600502016001018054600181600116156101000203166002900480601f016020809104026020016040519081016040528092919081815260200182805460018160011615610100020316600290048015610b2a5780601f10610aff57610100808354040283529160200191610b2a565b820191906000526020600020905b815481529060010190602001808311610b0d57829003601f168201915b50505050509050919050565b606060008210158015610b4d575060008054905082105b1515610bc1576040517f08c379a000000000000000000000000000000000000000000000000000000000815260040180806020018281038252601b8152602001807f646576696365496e646578206973206f7574206f662072616e6765000000000081525060200191505060405180910390fd5b600082815481101515610bd057fe5b90600052602060002090600502016002018054600181600116156101000203166002900480601f016020809104026020016040519081016040528092919081815260200182805460018160011615610100020316600290048015610c755780601f10610c4a57610100808354040283529160200191610c75565b820191906000526020600020905b815481529060010190602001808311610c5857829003601f168201915b50505050509050919050565b60008210158015610c96575060008054905082105b1515610d0a576040517f08c379a000000000000000000000000000000000000000000000000000000000815260040180806020018281038252601c8152602001807f5f646576696365496e646578206973206f7574206f662072616e67650000000081525060200191505060405180910390fd5b60008110158015610d1f575060018054905081105b1515610d93576040517f08c379a00000000000000000000000000000000000000000000000000000000081526004018080602001828103825260208152602001807f5f65786563757461626c65496e646578206973206f7574206f662072616e676581525060200191505060405180910390fd5b600260408051908101604052808481526020018381525090806001815401808255809150509060018203906000526020600020906002020160009091929091909150906002610de39291906120b4565b50505050565b600085600081815481101515610dfb57fe5b906000526020600020906005020160030160009054906101000a900473ffffffffffffffffffffffffffffffffffffffff1673ffffffffffffffffffffffffffffffffffffffff163373ffffffffffffffffffffffffffffffffffffffff16141515610ef5576040517f08c379a00000000000000000000000000000000000000000000000000000000081526004018080602001828103825260328152602001807f4f6e6c79207468652063757272656e7420637573746f6469616e2063616e206381526020017f616c6c20746869732066756e6374696f6e2e000000000000000000000000000081525060400191505060405180910390fd5b60008710158015610f0a575060008054905087105b1515610f7e576040517f08c379a000000000000000000000000000000000000000000000000000000000815260040180806020018281038252601b8152602001807f646576696365496e646578206973206f7574206f662072616e6765000000000081525060200191505060405180910390fd5b60008651118015610f90575060008551115b8015610f9d575060008451115b151561105d576040517f08c379a000000000000000000000000000000000000000000000000000000000815260040180806020018281038252604f8152602001807f496e6465782c206e616d652c206c6f636174696f6e2c206861736820616c676f81526020017f726974686d20616e64206861736820636f64652061726520616c6c207265717581526020017f6972656420706172616d6574657273000000000000000000000000000000000081525060600191505060405180910390fd5b61106986868686611597565b91506110758783610c81565b50505050505050565b60008080549050905090565b600080845111801561109d575060008351115b80156110aa575060008251115b151561116a576040517f08c379a00000000000000000000000000000000000000000000000000000000081526004018080602001828103825260418152602001807f4d616e7566616374757265722c206d6f64656c20616e642073657269616c206e81526020017f756d6265722061726520616c6c20726571756972656420706172616d6574657281526020017f730000000000000000000000000000000000000000000000000000000000000081525060600191505060405180910390fd5b600060a0604051908101604052808681526020018581526020018481526020013373ffffffffffffffffffffffffffffffffffffffff16815260200160008152509080600181540180825580915050906001820390600052602060002090600502016000909192909190915060008201518160000190805190602001906111f29291906120f4565b50602082015181600101908051906020019061120f9291906120f4565b50604082015181600201908051906020019061122c9291906120f4565b5060608201518160030160006101000a81548173ffffffffffffffffffffffffffffffffffffffff021916908373ffffffffffffffffffffffffffffffffffffffff1602179055506080820151816004015550505060016000805490500390509392505050565b60008082101580156112a9575060008054905082105b151561131d576040517f08c379a000000000000000000000000000000000000000000000000000000000815260040180806020018281038252601b8152602001807f646576696365496e646578206973206f7574206f662072616e6765000000000081525060200191505060405180910390fd5b60008281548110151561132c57fe5b906000526020600020906005020160030160009054906101000a900473ffffffffffffffffffffffffffffffffffffffff169050919050565b6000806000809150600090505b6002805490508110156113c5578360028281548110151561138f57fe5b906000526020600020906002020160006002811015156113ab57fe5b015414156113ba578160010191505b806001019050611372565b8192505050919050565b60008060006060600086101580156113eb575060008054905086105b151561145f576040517f08c379a000000000000000000000000000000000000000000000000000000000815260040180806020018281038252601c8152602001807f5f646576696365496e646578206973206f7574206f662072616e67650000000081525060200191505060405180910390fd5b600085511115156114d8576040517f08c379a000000000000000000000000000000000000000000000000000000000815260040180806020018281038252601d8152602001807f4e616d65206973206120726571756972656420706172616d657465727300000081525060200191505060405180910390fd5b600092505b60028054905083101561157c57856002848154811015156114fa57fe5b9060005260206000209060020201600060028110151561151657fe5b015414156115715760028381548110151561152d57fe5b9060005260206000209060020201600160028110151561154957fe5b0154915061155682611dfb565b90506115628186611ebd565b156115705760019350611581565b5b8260010192506114dd565b600093505b50505092915050565b6000600180549050905090565b60008085511180156115aa575060008451115b80156115b7575060008351115b1515611677576040517f08c379a00000000000000000000000000000000000000000000000000000000081526004018080602001828103825260488152602001807f4e616d652c206c6f636174696f6e2c206861736820616c676f726974686d206181526020017f6e64206861736820636f64652061726520616c6c20726571756972656420706181526020017f72616d657465727300000000000000000000000000000000000000000000000081525060600191505060405180910390fd5b6001608060405190810160405280878152602001868152602001858152602001848152509080600181540180825580915050906001820390600052602060002090600402016000909192909190915060008201518160000190805190602001906116e29291906120f4565b5060208201518160010190805190602001906116ff9291906120f4565b50604082015181600201908051906020019061171c9291906120f4565b506060820151816003015550505060018080549050039050949350505050565b60008360008181548110151561174e57fe5b906000526020600020906005020160030160009054906101000a900473ffffffffffffffffffffffffffffffffffffffff1673ffffffffffffffffffffffffffffffffffffffff163373ffffffffffffffffffffffffffffffffffffffff16141515611848576040517f08c379a00000000000000000000000000000000000000000000000000000000081526004018080602001828103825260328152602001807f4f6e6c79207468652063757272656e7420637573746f6469616e2063616e206381526020017f616c6c20746869732066756e6374696f6e2e000000000000000000000000000081525060400191505060405180910390fd5b6000851015801561185d575060008054905085105b15156118d1576040517f08c379a000000000000000000000000000000000000000000000000000000000815260040180806020018281038252601b8152602001807f646576696365496e646578206973206f7574206f662072616e6765000000000081525060200191505060405180910390fd5b6000858154811015156118e057fe5b906000526020600020906005020160030160009054906101000a900473ffffffffffffffffffffffffffffffffffffffff1691508360008681548110151561192457fe5b906000526020600020906005020160030160006101000a81548173ffffffffffffffffffffffffffffffffffffffff021916908373ffffffffffffffffffffffffffffffffffffffff1602179055508260008681548110151561198357fe5b9060005260206000209060050201600401819055507f90c5d8794dcf7c60ab2d20912d5228389b28f74d32af01e40894a784a90b9ac2828587604051808473ffffffffffffffffffffffffffffffffffffffff1673ffffffffffffffffffffffffffffffffffffffff1681526020018373ffffffffffffffffffffffffffffffffffffffff1673ffffffffffffffffffffffffffffffffffffffff168152602001828152602001935050505060405180910390a15050505050565b600080600080600086600081815481101515611a5657fe5b906000526020600020906005020160030160009054906101000a900473ffffffffffffffffffffffffffffffffffffffff1673ffffffffffffffffffffffffffffffffffffffff163373ffffffffffffffffffffffffffffffffffffffff16141515611b50576040517f08c379a00000000000000000000000000000000000000000000000000000000081526004018080602001828103825260328152602001807f4f6e6c79207468652063757272656e7420637573746f6469616e2063616e206381526020017f616c6c20746869732066756e6374696f6e2e000000000000000000000000000081525060400191505060405180910390fd5b60008810158015611b65575060008054905088105b1515611bd9576040517f08c379a000000000000000000000000000000000000000000000000000000000815260040180806020018281038252601b8152602001807f646576696365496e646578206973206f7574206f662072616e6765000000000081525060200191505060405180910390fd5b60008751111515611c52576040517f08c379a000000000000000000000000000000000000000000000000000000000815260040180806020018281038252601f8152602001807f4e616d652069732061726520726571756972656420706172616d65746572730081525060200191505060405180910390fd5b6000945060009350600092505b600180549050831015611dd357611d2e600184815481101515611c7e57fe5b90600052602060002090600402016000018054600181600116156101000203166002900480601f016020809104026020016040519081016040528092919081815260200182805460018160011615610100020316600290048015611d235780601f10611cf857610100808354040283529160200191611d23565b820191906000526020600020905b815481529060010190602001808311611d0657829003601f168201915b505050505088611ebd565b15611dc857600091505b600280549050821015611dc75787600283815481101515611d5557fe5b90600052602060002090600202016000600281101515611d7157fe5b0154148015611dab575082600283815481101515611d8b57fe5b90600052602060002090600202016001600281101515611da757fe5b0154145b15611dbc5760019450819350611dc7565b816001019150611d38565b5b826001019250611c5f565b8415611deb57611de284611fab565b60019550611df0565b600095505b505050505092915050565b6060600182815481101515611e0c57fe5b90600052602060002090600402016000018054600181600116156101000203166002900480601f016020809104026020016040519081016040528092919081815260200182805460018160011615610100020316600290048015611eb15780601f10611e8657610100808354040283529160200191611eb1565b820191906000526020600020905b815481529060010190602001808311611e9457829003601f168201915b50505050509050919050565b600081518351141515611ed35760009050611fa5565b816040518082805190602001908083835b602083101515611f095780518252602082019150602081019050602083039250611ee4565b6001836020036101000a038019825116818451168082178552505050505050905001915050604051809103902060001916836040518082805190602001908083835b602083101515611f705780518252602082019150602081019050602083039250611f4b565b6001836020036101000a0380198251168184511680821785525050505050509050019150506040518091039020600019161490505b92915050565b60008190505b60028054905081101561208957600260018201815481101515611fd057fe5b90600052602060002090600202016000600281101515611fec57fe5b0154600282815481101515611ffd57fe5b9060005260206000209060020201600060028110151561201957fe5b018190555060026001820181548110151561203057fe5b9060005260206000209060020201600160028110151561204c57fe5b015460028281548110151561205d57fe5b9060005260206000209060020201600160028110151561207957fe5b0181905550806001019050611fb1565b6002805490508210156120b05760016002818180549050039150816120ae9190612174565b505b5050565b82600281019282156120e3579160200282015b828111156120e25782518255916020019190600101906120c7565b5b5090506120f091906121a6565b5090565b828054600181600116156101000203166002900490600052602060002090601f016020900481019282601f1061213557805160ff1916838001178555612163565b82800160010185558215612163579182015b82811115612162578251825591602001919060010190612147565b5b50905061217091906121a6565b5090565b8154818355818111156121a1576002028160020283600052602060002091820191016121a091906121cb565b5b505050565b6121c891905b808211156121c45760008160009055506001016121ac565b5090565b90565b6121f491905b808211156121f057600081816121e791906121f7565b506002016121d1565b5090565b90565b5060008155600101600090555600a165627a7a72305820153cfd4f4bc43e8a766d9dea0469a6f0d25eec350e40190ee32180d74dedbe6d0029",
  "source": "pragma solidity ^0.4.22;\n\nimport \"./Utilities.sol\";\n\n/**\n* The DeviceCustody contract contains a record of a device and the\n* software installed. This contract records the \"state\" of the device\n* at each ownership transition with the list of installed software (with hash values)\n* and a hash of the system as a whole.\n* Transfer of custody and modifications to the executables are traceable in the transactions\n* on the blockchain.\n*/\ncontract DeviceCustody {\n    // a structure to encapsulate the properties of an executable installation\n    struct Executable {\n        string name;\n        string location;\n        string hashAlgorithm;\n        uint hashCode;\n    }\n\n    // A struct to encapsulate all of the information about a single device\n    struct Device {\n        // the manufacturer of the device, this may not be changed after instantiation\n        string manufacturer;\n        // the model of the device, this may not be changed after instantiation\n        string model;\n        // the serial number of the device, this may not be changed after instantiation\n        string serialNumber;\n        // The current custodian of the hardware is the owner of the contract\n        address currentCustodian;\n\n        // The global hash MUST be included when the current custodian transfers custody to the next custodian,\n        uint globalHash;\n    }\n\n    // the known devices\n    Device[] private devices;\n\n    // the known executable installations\n    Executable[] private executables;\n\n    // a map from a Device index number to an Executable index number\n    // save space when a number of devices\n    // are configured identically (something like a SQL join table)\n    // NOTE: this makes deletion of either Device or Executable difficult and\n    // expensive because the indexes will shift and all of the references\n    // would have to be fixed\n    // so, for purposes of this POC, deletion is not supported\n    // BTW: indices are zero-based and access works in the opposite way of the declaration\n    uint[2][] installedExecutableReferences;\n\n    // indexes into the above array, each element of the inner (2 element) array\n    // is a reference to an element in the devices and executables arrays respectively\n    uint constant DEVICE_INDEX = 0;\n    uint constant EXECUTABLE_INDEX = 1;\n\n    /* An event to notify when the custody of a Device changes */\n    event CustodyTransfer(address oldCustodian, address newCustodian, uint index);\n\n    /* restrict some methods to only the current custodian of the device */\n    modifier onlyCurrentCustodian(uint _index) {\n        require(\n            msg.sender == devices[_index].currentCustodian,\n            \"Only the current custodian can call this function.\"\n        );\n        _;\n    }\n\n    // no-arg constructor\n    constructor () public {\n\n    }\n\n    function deviceCount() public view returns(uint) {\n        return devices.length;\n    }\n\n    function executableCount() public view returns(uint) {\n        return executables.length;\n    }\n\n    /*\n     * Constructor requires that the immutable manufacturer, model and serial number be set\n     */\n    function newDevice (string _manufacturer, string _model, string _serialNumber) public returns (uint) {\n        require(bytes(_manufacturer).length > 0 && bytes(_model).length > 0 && bytes(_serialNumber).length > 0,\n            \"Manufacturer, model and serial number are all required parameters\");\n\n        devices.push(Device({\n            manufacturer: _manufacturer,\n            model :_model,\n            serialNumber : _serialNumber,\n            currentCustodian : msg.sender,\n            globalHash: 0\n        }));\n\n        return devices.length - 1;\n    }\n\n    function getDeviceManufacturer(uint _deviceIndex) public view returns(string) {\n        require(_deviceIndex >= 0 && _deviceIndex < devices.length,\n            \"deviceIndex is out of range\");\n        return devices[_deviceIndex].manufacturer;\n    }\n\n    function getDeviceModel(uint _deviceIndex) public view returns(string) {\n        require(_deviceIndex >= 0 && _deviceIndex < devices.length,\n            \"deviceIndex is out of range\");\n        return devices[_deviceIndex].model;\n    }\n\n    function getDeviceSerialNumber(uint _deviceIndex) public view returns(string) {\n        require(_deviceIndex >= 0 && _deviceIndex < devices.length,\n            \"deviceIndex is out of range\");\n        return devices[_deviceIndex].serialNumber;\n    }\n\n    function getDeviceCurrentCustodian(uint _deviceIndex) public view returns(address) {\n        require(_deviceIndex >= 0 && _deviceIndex < devices.length,\n            \"deviceIndex is out of range\");\n        return devices[_deviceIndex].currentCustodian;\n    }\n\n    /*\n     * Called when the current custodian transfers responsibility to the new custodian\n     */\n    function transfer(\n        uint _deviceIndex,\n        address _newCustodian,\n        uint _globalHash)\n    onlyCurrentCustodian(_deviceIndex) public {\n        require(_deviceIndex >= 0 && _deviceIndex < devices.length,\n            \"deviceIndex is out of range\");\n\n        address oldCustodian = devices[_deviceIndex].currentCustodian;\n\n        devices[_deviceIndex].currentCustodian = _newCustodian;\n        devices[_deviceIndex].globalHash = _globalHash;\n\n        emit CustodyTransfer(oldCustodian, _newCustodian, _deviceIndex);\n    }\n\n    /**\n     * Add an Executable to storage\n     * the name, location and has algorithm must be non-null\n     */\n    function newExecutable(\n        string _name,\n        string _location,\n        string _hashAlgorithm,\n        uint _hashCode)\n    public returns (uint) {\n        require(bytes(_name).length > 0 && bytes(_location).length > 0 && bytes(_hashAlgorithm).length > 0,\n            \"Name, location, hash algorithm and hash code are all required parameters\");\n\n        executables.push(Executable(_name, _location, _hashAlgorithm, _hashCode));\n        return executables.length - 1;\n    }\n\n    /**\n     * Add a new Executable to a Device\n     * the name, location and hash algorithm must be non-null\n     */\n    function addExecutable(\n        uint _deviceIndex,\n        string _name,\n        string _location,\n        string _hashAlgorithm,\n        uint _hashCode)\n    onlyCurrentCustodian(_deviceIndex) public {\n        require(_deviceIndex >= 0 && _deviceIndex < devices.length,\n            \"deviceIndex is out of range\");\n        require(bytes(_name).length > 0 && bytes(_location).length > 0 && bytes(_hashAlgorithm).length > 0,\n            \"Index, name, location, hash algorithm and hash code are all required parameters\");\n\n        uint executableIndex = newExecutable(_name, _location, _hashAlgorithm, _hashCode);\n        addExecutable(_deviceIndex, executableIndex);\n    }\n\n    /**\n    * Add an existing Executable to a Device\n    */\n    function addExecutable(\n        uint _deviceIndex,\n        uint _executableIndex)\n    public {\n        require(_deviceIndex >= 0 && _deviceIndex < devices.length,\n            \"_deviceIndex is out of range\");\n        require(_executableIndex >= 0 && _executableIndex < executables.length,\n            \"_executableIndex is out of range\");\n\n        installedExecutableReferences.push([_deviceIndex, _executableIndex]);\n    }\n\n    /**\n      * Remove the installed executable with the given name if found.\n      * This only removes thlink between the Device and the Executable, it\n      * does not remove anything from the Device or Executable arrays.\n      */\n    function removeInstalledExecutable(\n        uint _deviceIndex,\n        string _name)\n    onlyCurrentCustodian(_deviceIndex) public returns (bool) {\n        require(_deviceIndex >= 0 && _deviceIndex < devices.length,\n            \"deviceIndex is out of range\");\n        require(bytes(_name).length > 0,\n            \"Name is are required parameters\");\n\n        bool referenceFound = false;\n        uint deadReference = 0;\n        for (uint executableIndex = 0; executableIndex < executables.length; ++executableIndex) {\n            if (Utilities.equals(executables[executableIndex].name, _name)) {\n                for (uint referenceIndex = 0; referenceIndex < installedExecutableReferences.length; ++referenceIndex) {\n                    if (installedExecutableReferences[referenceIndex][0] == _deviceIndex\n                        && installedExecutableReferences[referenceIndex][1] == executableIndex) {\n                        // remove this relationship\n                        referenceFound = true;\n                        deadReference = referenceIndex;\n                        break;\n                    }\n                }\n            }\n        }\n\n        if (referenceFound) {\n            removeDeadReference(deadReference);\n            return true;\n        } else {\n            return false;\n        }\n    }\n\n    // removes the indicated relationship between a Device and an Executable\n    function removeDeadReference(uint _deadReferenceIndex) private {\n        for (uint index = _deadReferenceIndex; index < installedExecutableReferences.length; ++index) {\n            // if the current is the one to be removed or is after the one to be removed\n            // then copy the following element over this element\n            installedExecutableReferences[index][DEVICE_INDEX] = installedExecutableReferences[index + 1][DEVICE_INDEX];\n            installedExecutableReferences[index][EXECUTABLE_INDEX] = installedExecutableReferences[index + 1][EXECUTABLE_INDEX];\n        }\n\n        // shorten the array if we found the specified element\n        if (_deadReferenceIndex < installedExecutableReferences.length) {\n            installedExecutableReferences.length -= 1;\n        }\n    }\n\n    /**\n     * returns true/false if a named executable is installed\n     * 'view' function as it does not modify state\n     */\n    function isExecutableInstalled(uint _deviceIndex, string _name) public view returns (bool) {\n        require(_deviceIndex >= 0 && _deviceIndex < devices.length, \"_deviceIndex is out of range\");\n        require(bytes(_name).length > 0, \"Name is a required parameters\");\n\n        for (uint index = 0; index < installedExecutableReferences.length; ++index) {\n            if (installedExecutableReferences[index][DEVICE_INDEX] == _deviceIndex) {\n                uint executableReference = installedExecutableReferences[index][EXECUTABLE_INDEX];\n                string memory executableName = getExecutableName(executableReference);\n                if (Utilities.equals(executableName, _name)) {\n                    return true;\n                }\n            }\n        }\n\n        return false;\n    }\n\n    function getExecutableName(uint _index) private view returns(string) {\n        return executables[_index].name;\n    }\n\n    /**\n     * returns the number of executables installed\n     * 'view' function as it does not modify state\n     */\n    function executableInstalledCount(uint _deviceIndex) public view returns (uint) {\n        uint count = 0;\n        for (uint index = 0; index < installedExecutableReferences.length; ++index)\n            if (installedExecutableReferences[index][DEVICE_INDEX] == _deviceIndex)\n                ++count;\n\n        return count;\n    }\n\n    // Fallback function - Called if other functions don't match call or\n    // sent ether without data\n    // Typically, called when invalid data is sent\n    // Added so ether sent to this contract is reverted if the contract fails\n    // otherwise, the sender's money is transferred to contract\n    function() public {\n        revert();\n    }\n\n}\n",
  "sourcePath": "/Users/Chris/src/ConsensysAcademy/device_custody/contracts/DeviceCustody.sol",
  "compiler": {
    "name": "solc",
    "version": "0.4.24+commit.e67f0147.Emscripten.clang"
  },
  "schemaVersion": "2.0.1",
  "updatedAt": "2018-08-27T23:12:10.048Z"
}